:100000000C94C9050C9475090C944E090C9427099D
:100010000C9400090C94F1050C94F1050C94D9088A
:100020000C94F1050C94F1050C94B7110C94291261
:100030000C94F1050C94F1050C94F1050C94F10568
:100040000C94F1050C94700B0C94F1050C94F105D3
:100050000C94F1050C94F1050C94F1050C948F08A7
:100060000C94F1050C94F1050C94F1050C94F10538
:100070000C94F1050C94F1050C94F1050C94F10528
:100080000C94F1050C94F1050C94F1050C94F10518
:100090000C94310C0C94F1050C94F1050C94F105C1
:1000A0000C94F1050C94F1050C94F1058C078F0765
:1000B0007E0782078607B007B007B0079307970748
:1000C0009B07A107A507B007AB07084AD73B3BCE64
:1000D000016E84BCBFFDC12F3D6C74319ABD568347
:1000E0003DDA3D00C77F11BED9E4BB4C3E916BAAFF
:1000F000AABE000000803F0001B202FFFF01900491
:100100000923A135016A0206000160080000000011
:1001100000000000006004400000000162020000D6
:1001200000600400400000037B034CCD6C03AB0374
:1001300036567600680402CB47A202180400058BED
:10014000C1010C0400000000037F060CC92C979726
:1001500097038903264666006C02200002400400D3
:1001600000000002440400000000024804000000F7
:1001700000024C04000000000250040000000002D5
:1001800054040000000002580400000000025C0457
:100190000000000002BC040000000001EC040000AC
:1001A0004000037F060CC92C9797970402030D3576
:1001B0005D040904872D353D00A301000000000106
:1001C000078601FE074105F120283038077E0130FF
:1001D0000746019A074704F1283038076C04F128D4
:1001E00030380216020001FB00003E000B00360012
:1001F0000100020003000000650054FFEF0000FA58
:1002000080000B12820001000200000000000000CC
:100210000000000000000000280000FFFF4581FFF3
:10022000FFFA7200000000000003E8000000010077
:10023000017FFFFFFE8001001B00000000000000A6
:1002400000000000000000003E03304000000002FB
:10025000CAE3093E800000200000000000000040CA
:100260000000006000000041FF000000000B2A00B9
:1002700000165500002182FD872650FD80000000F9
:100280001F000000058000000000000001000000C9
:1002900002000000030000400000000000046F00A6
:1002A00002653200005EC040000000000000000057
:1002B00000000000000000FB8C6F5DFD5D08D900B0
:1002C0007C733B006C12CC3200139D3200D0D632CE
:1002D000000800400001F4FFE68079020000000001
:1002E00000D0D600002710FB0000004000000000F6
:1002F00000000000000000000000010000000000FD
:10030000000100010000000000FA36FFBC308E0042
:1003100005FBF0FFD95BC8FFD09ABE000010A9FF13
:10032000F41EB200CEBBF700000001000000040084
:100330000200020200000CFFC280000001800000E9
:10034000CF8000400000000000000100000000001D
:100350000006000000001400000000000000000083
:10036000000000000000000000000000000000008D
:10037000000000000000000000000000000000007D
:100380000000000000000000000000033F68B67994
:100390003528BCC67ED16C80000000400000000003
:1003A00000B26A0000000000000000000000000031
:1003B000003FF000000030000000000000000000DE
:1003C000000000000000000000000000000000002D
:1003D000000000000000000000254D002F706D009F
:1003E0000005AE000C02D00000000000650054FFC4
:1003F000EF000000000000000001000044000000C9
:10040000000C00000001000000000000650000007A
:10041000540000FFEF00000000000000000000009A
:10042000000000000000004000000000000000008C
:10043000000000000000004000000000000000007C
:1004400000000000000000000000010000000200A9
:10045000000000000000000000000000000000009C
:10046000000000000000000000000000000000008C
:1004700000000000000000001B0000000000000061
:10048000000000000000000000000000000000006C
:10049000000000000000000000000000000000005C
:1004A00000000040000000001B00000000000000F1
:1004B000000000000000000000000000000000003C
:1004C000000000000000000000000000000000002C
:1004D000000000000000000000000000000000001C
:1004E00000000000000000D8DCBAA2F1DEB2B8B40F
:1004F000A88191F74A907F916AF3F9DBA8F9B0BA25
:10050000A080F2CE81F3C2F1C1F2C3F3CCA2B280DB
:10051000F1C6D880BAA7DFDFDFF2A7C3CBC5B6F03C
:1005200087A2942448703C95406834589B78A2F187
:1005300083922D557DD8B1B4B8A1D09180F270F3DB
:1005400070F27C80A8F101B09887D943D886C98819
:10055000BAA1F20EB89780F1A9DFDFDFAADFDFDFF3
:10056000F2AAC5CDC7A90CC92C97979797F1A9896D
:10057000264666B0B4BA80ACDEF2CAF1B28C02A9EB
:10058000B69800890E161EB8A9B4992C547CB08A6E
:10059000A896365676F1B9AFB4B083C0B8A8971113
:1005A000B18F98B9AFF0240844106418F1A329550D
:1005B0007DAF83B593AFF0002850F1A3869F61A66D
:1005C000DADEDFD9FAA38696DB31A6D9F8DFBAA640
:1005D0008FC2C5C7B28CC1B8A2DFDFDFA3DFDFDF08
:1005E000D8D8F1B8A8B286B4980D355DB8AA98B03D
:1005F000872D353DB2B6BAAF8C96198F9FA70E16D0
:100600001EB49AB8AA872C547CB9A3DEDFDFA3B14D
:1006100080F2C4CDC9F1B8A9B499830D355D89B90B
:10062000A32D557DB593A30E161EA92C547CB8B4EA
:10063000B0F19783A81184A50998A383F0DA240860
:1006400044106418D8F1A529557DA58595021A2E68
:100650003A565A4048F9F3A3D9F8F098832408444D
:100660001064189782A8F111F098A224084410642D
:1006700018DAF3DED883A59401D9A302F1A2C3C589
:10068000C7D8F18492A24DDA2AD84869D92AD86805
:1006900055DA32D85071D932D8705DDA3AD85879F3
:1006A000D93AD87893A34DDA2AD84869D92AD86894
:1006B00055DA32D85071D932D8705DDA3AD85879D3
:1006C000D93AD878A88A9AF02850789EF38818F1F9
:1006D0009F1D98A8D908D8C89F129EF315A8DA12B2
:1006E00010D8F1AFC8978734B5B994A421F3D922B3
:1006F000D8F22DF3D92AD8F235F3D932D881A460B3
:100700006061D961D86C6869D969D8747071D97120
:10071000D8B1A384193D5DA3831A3E5E9310308146
:100720001011B8B0AF8F94F2DA3ED8B49AA88729E6
:10073000DAF8D8879A35DAF8D8879A3DDAF8D8B156
:10074000B9A49885022E56A581000C14A397B08AEF
:10075000F12DD928D84DD948D86DD968D8B1840D94
:10076000DA0ED8A32983DA2C0ED8A3844983DA2C95
:100770004C0ED8B8B0A88A9AF520AADADFD8A840DB
:10078000AAD0DADED8A860AADAD0DFD8F19786A896
:10079000319B069907AB9728889BF00C201440B832
:1007A000B0B4A88C9CF0042851791D301438B28262
:1007B000ABD0982C505078789BF11AB0F08A9CA856
:1007C0002951798B2951798A2470598B2058718A43
:1007D0004469388B3940688A6448318B304960A558
:1007E00088200971584468113964493019F1AC0006
:1007F0002C547CF08CA804285078F1889726A859AE
:1008000098AC8C02264666F0899CA8295179247000
:1008100059446938644831A98809205970AB1138A6
:100820004069A8193148608CA83C415C207C00F1EB
:1008300087981986A86E767EA999882D557D9EB9D0
:10084000A38A228A6E8A568A5E9FB18306264666EE
:100850000E2E4E6E9DB8AD002C547CF2B18CB49926
:10086000B9A32D557D8191AC38AD3AB58391AC2DAE
:10087000D928D84DD948D86DD968D88C9DAE29D9FA
:1008800004AED851D904AED879D904D881F39DAD3E
:10089000008DAE1981ADD901D8F2AEDA26D88E918D
:1008A0002983A7D9ADADADADF32AD8D8F1B0AC89C5
:1008B000913E5E76F3AC2E2EF1B18C5A9CAC2C2876
:1008C00028289CAC3018A8988128343C9724A72865
:1008D000343C9C24F2B089AC912C4C6C8A9B2DD971
:1008E000D8D851D9D8D879D9D8D8F19E88A331DAB7
:1008F000D8D8912DD928D84DD948D86DD968D8B134
:100900008393353D8025DAD8D88569DAD8D8B49371
:1009100081A328343CF3AB8BF8A391B609B4D9ABCF
:10092000DEFAB0879CB9A3DDF1A3A3A3A395F1A33D
:10093000A3A39DF1A3A3A3A3F2A3B49080F2A3A3C6
:10094000A3A3A3A3A3A3A3A3B2A3A3A3A3A3A3B05B
:1009500087B599F1A3A3A398F1A3A3A3A397A3A3F6
:10096000A3A3F39BA3A3DCB9A7F1262626D8D8FF1F
:100970002900444D5020496E697469616C697A613F
:1009800074696F6E206661696C65642028636F64AA
:10099000652000444D5020726561647921205761C3
:1009A0006974696E6720666F72206669727374205D
:1009B000696E746572727570742E2E2E00456E61AC
:1009C000626C696E6720696E7465727275707420EE
:1009D000646574656374696F6E202841726475691B
:1009E0006E6F2065787465726E616C20696E7465D7
:1009F00072727570742030292E2E2E00456E616241
:100A00006C696E6720444D502E2E2E004D50553689
:100A100030353020636F6E6E656374696F6E20666B
:100A200061696C6564004D50553630353020636F18
:100A30006E6E656374696F6E20737563636573733F
:100A400066756C00496E697469616C697A696E6774
:100A500020444D502E2E2E0054657374696E67200D
:100A600064657669636520636F6E6E656374696F34
:100A70006E732E2E2E00496E697469616C697A69F5
:100A80006E672049324320646576696365732E2E54
:100A90002E004649464F206F766572666C6F77214F
:100AA000000000000200090F0000030401000C0018
:100AB0000000000000000000000000000000000036
:100AC00000000000250028002B002E00310000004F
:100AD0000000240027002A002D0030000404040434
:100AE00004030405020202020403020202020606D3
:100AF00006060606040402020204040408020110A9
:100B00004080401020408040800802040180402046
:100B100010020110801020404020080B0002020249
:100B20000100090400000102020000052400100178
:100B3000052401010104240206052406000107051D
:100B4000810310004009040100020A0000000705AB
:100B5000020240000007058302400000040309046C
:100B600012010002EF020140412336800001010220
:100B7000030141726475696E6F204C4C43004172F1
:100B80006475696E6F204C656F6E6172646F0000F2
:100B9000E81E11241FBECFEFDAE0DEBFCDBF11E0AB
:100BA000A0E0B1E0E6E9FBE402C005900D92A038B8
:100BB000B107D9F723E0A0E8B1E001C01D92A23C43
:100BC000B207E1F715E0C9ECD5E004C02197FE01BA
:100BD0000E94B123C83CD107C9F70E94B9140C94F4
:100BE000C9250C940000CF93DF931F92CDB7DEB7D9
:100BF0006983DC01ED91FC910280F381E02D41E0FD
:100C000050E0BE016F5F7F4F09950F90DF91CF914C
:100C1000089583E08093E9008091F200882319F021
:100C20008AE38093E8000895FC018485958597FD0B
:100C30000BC09FB7F89482E08093E9008091F200A6
:100C40009FBF90E0019608959FB7F89482E080934B
:100C5000E9008091F2009FBF90E008953FB7F894BB
:100C60008091F9019091FA01A091FB01B091FC01F2
:100C700026B5A89B05C02F3F19F00196A11DB11DF7
:100C80003FBFBA2FA92F982F8827820F911DA11D32
:100C9000B11DBC01CD0142E0660F771F881F991F6F
:100CA0004A95D1F7089508958091800190E02091B0
:100CB0008101821B9109089585ED8093BC0080918C
:100CC000BC0084FDFCCF1092250208954091AE0136
:100CD000262F30E0240F311D21323105DCF4209124
:100CE00025022430C9F4FC0180E090E0861758F416
:100CF0003091AE012191DC01A457BE4FA30FB11D6D
:100D00002C930196F3CF8091AE01680F6093AE01F2
:100D100080E0089581E0089582E008950895E091CB
:100D2000810180918001E81730F4F0E0EC52FE4F31
:100D3000808190E008958FEF9FEF08959091810159
:100D400080918001981750F4E92FF0E0EC52FE4FAB
:100D5000208130E09F5F9093810102C02FEF3FEF31
:100D6000C9010895CF92DF92EF92FF920F931F93E4
:100D7000CF93DF937C01262F972F8A018091260243
:100D8000882391F0C62FD72F6E01C40ED51ECC1527
:100D9000DD0571F06991D701ED91FC910190F08131
:100DA000E02DC7010995F3CF642F822F0E946606BC
:100DB000C801DF91CF911F910F91FF90EF90DF90CD
:100DC000CF900895CF93DF931F92CDB7DEB769839D
:100DD000209126022223D1F020914902203240F0B6
:100DE00021E030E0FC013383228380E090E015C0F5
:100DF00080912702E82FF0E0E85DFD4F9981908314
:100E00008F5F809327028093490205C061E0CE0185
:100E100001960E94660681E090E00F90DF91CF91ED
:100E20000895089580E090E0089581E08093820124
:100E300008950E94961090E008950F931F93CF930A
:100E4000DF931F92CDB7DEB78C01FC0184859585B9
:100E500097FF0EC0CE0101960E946C10019719F405
:100E6000298130E002C02FEF3FEFF801358724875A
:100E7000F801848595850F90DF91CF911F910F9197
:100E80000895CF93DF931F92CDB7DEB7FC01848521
:100E9000958597FD05C02FEF3FEF358724870BC061
:100EA000CE0101960E946C10019719F4898190E09F
:100EB00002C08FEF9FEF0F90DF91CF9108950E94B6
:100EC000AE25362F90E0FC01EF55F54F4491FC0123
:100ED000E550F54F2491FC01E452F54F84918823AD
:100EE00009F451C04423E1F150E0FA013197EF30A9
:100EF000F105B0F5EA5AFF4F0C94B12390918000B0
:100F00009F7707C0909180009F7D03C090918000E3
:100F1000977F9093800024C094B59F7702C094B5CA
:100F20009F7D94BD1DC0909190009F7707C09091C8
:100F300090009F7D03C090919000977F90939000C8
:100F40000FC09091C0009F7703C09091C0009F7D1B
:100F50009093C00005C09091C200977F9093C2000B
:100F6000E82FF0E0EE0FFF1FE054F54FA591B4918C
:100F70008FB7F894EC91311103C020952E2301C056
:100F80002E2B2C938FBF08958F929F92AF92BF927A
:100F9000CF92DF92EF92FF926B017C010E942E06AE
:100FA0004B015C01C114D104E104F104F1F00E9491
:100FB0002E06DC01CB0188199909AA09BB09883ED4
:100FC0009340A105B10570F321E0C21AD108E108F0
:100FD000F10888EE880E83E0981EA11CB11CC11494
:100FE000D104E104F10419F7DDCFFF90EF90DF9019
:100FF000CF90BF90AF909F908F9008958F929F92C7
:10100000AF92BF92CF92DF92EF92FF920F931F9316
:10101000CF93DF935C016B017A01809115018823E6
:1010200009F45BC08091FE01882309F456C08091C9
:10103000B80380FF05C08091E00082608093E000EB
:10104000E70110E00AEF83E0882E9AE3992E2097BB
:10105000D9F10E94961081110AC0015009F43DC0D7
:1010600061E070E080E090E00E94C407F0CF282F9C
:1010700030E0C217D3070CF48C2F4FB7F89480924E
:10108000E9009091E80095FF1DC0282F30E0C21BB9
:10109000D30BF601982F915020F081918093F100AD
:1010A000FACFC20ED31E112319F09092E80009C0A6
:1010B0008091E80085FD06C09092E80011E020973D
:1010C00009F010E04FBFC3CF1111C3CF5D9884E684
:1010D0008093B9031E141F0444F081E090E0F501F1
:1010E0009383828380E090E001C0C701DF91CF91BC
:1010F0001F910F91FF90EF90DF90CF90BF90AF9036
:101100009F908F9008952FB7F8946091F50170919A
:10111000F6018091F7019091F8012FBF08951F9279
:101120000F920FB60F9211242F933F938F939F939B
:10113000AF93BF938091F5019091F601A091F701D3
:10114000B091F8013091F40123E0230F2D3720F402
:101150000196A11DB11D05C026E8230F0296A11D11
:10116000B11D2093F4018093F5019093F601A093B3
:10117000F701B093F8018091F9019091FA01A091E3
:10118000FB01B091FC010196A11DB11D8093F901F5
:101190009093FA01A093FB01B093FC01BF91AF9132
:1011A0009F918F913F912F910F900FBE0F901F90A5
:1011B00018951F920F920FB60F9211242F933F9301
:1011C0004F935F936F937F938F939F93AF93BF934F
:1011D000EF93FF93E0910801F09109010995FF91C8
:1011E000EF91BF91AF919F918F917F916F915F919F
:1011F0004F913F912F910F900FBE0F901F90189518
:101200001F920F920FB60F9211242F933F934F937B
:101210005F936F937F938F939F93AF93BF93EF935E
:10122000FF93E0910601F09107010995FF91EF917D
:10123000BF91AF919F918F917F916F915F914F91EE
:101240003F912F910F900FBE0F901F9018951F92F6
:101250000F920FB60F9211242F933F934F935F93EA
:101260006F937F938F939F93AF93BF93EF93FF936E
:10127000E0910401F09105010995FF91EF91BF9173
:10128000AF919F918F917F916F915F914F913F911E
:101290002F910F900FBE0F901F9018951F920F92D5
:1012A0000FB60F9211242F933F934F935F936F9339
:1012B0007F938F939F93AF93BF93EF93FF93E091AF
:1012C0000201F09103010995FF91EF91BF91AF9158
:1012D0009F918F917F916F915F914F913F912F914E
:1012E0000F900FBE0F901F9018951F920F920FB680
:1012F0000F9211242F933F934F935F936F937F939C
:101300008F939F93AF93BF93EF93FF93E09100016F
:10131000F09101010995FF91EF91BF91AF919F91DC
:101320008F917F916F915F914F913F912F910F908E
:101330000FBE0F901F901895EF92FF920F931F937F
:10134000CF93DF9300D0CDB7DEB7142F91E0909309
:10135000260280934802109227021092490282EEE0
:1013600092E029833A830E94E2062981022FE22E2D
:101370003A81F32E8E2D801B811740F4F701619185
:101380007F0182EE92E00E94E206F4CF0E94AF0D50
:1013900091E0811190E0892F0F900F90DF91CF9114
:1013A0001F910F91FF90EF900895CF93DF931F92BD
:1013B000CDB7DEB749839E012F5F3F4F41E00E94CA
:1013C0009C090F90DF91CF9108952F923F924F92F9
:1013D0005F926F927F928F929F92AF92BF92CF92C5
:1013E000DF92EF92FF920F931F93CF93DF93CDB7CE
:1013F000DEB727970FB6F894DEBF0FBECDBFE82E3D
:101400006B834F8369010E9483084B015C016E2C42
:10141000660CF12C1E82772473945F81452F50E077
:101420005D834C831801412C512C4F81F41608F038
:1014300099C070922602E092480210922702109200
:1014400049026B8182EE92E00E94E2060E94AF0D9B
:1014500070922602E09248021092270210924902EE
:10146000809125028111FCCF2C813D812F193109FA
:101470002132310514F020E230E0213208F020E280
:1014800070922502709224028FEF809323021092B3
:101490002202820F8093210270920002809100024A
:1014A0008629809300028091FF01813071F41092AF
:1014B000FF01809100028093BB008091BC0083FDFE
:1014C000F8CF95EC9093BC0003C0E5EEE093BC0030
:1014D000809125028130E1F380912202821710F47D
:1014E00020912202A1E0B2E0E4EDF1E08E2F44ED84
:1014F00051E0841B821718F48D918193F7CF1092DD
:101500008101209380019091800180918101981741
:1015100019F10115110599F4A6012E81420F511DF3
:1015200027FD5A955A83498382EE92E00E949E06D7
:10153000E981FA8180832E812F5F2E83E4CF0E9480
:101540008308DC01CB0188199909AA09BB09821516
:101550009305A405B50500F38F81813208F080E280
:10156000F80E63CFFE8001151105D9F00E948308A3
:10157000DC01CB0188199909AA09BB0920E030E0F8
:1015800080179107A207B30760F05F81252F30E035
:101590008F2D0F2C000C990B8217930714F4FF2446
:1015A000FA948F2D27960FB6F894DEBF0FBECDBFED
:1015B000DF91CF911F910F91FF90EF90DF90CF902F
:1015C000BF90AF909F908F907F906F905F904F9063
:1015D0003F902F900895BF92CF92DF92EF92FF92AB
:1015E0000F931F93CF93DF931F92CDB7DEB7F82EE3
:1015F000E62EC42EB22ED02E08EE13E09E012F5FF1
:101600003F4F41E00E94E509882321F1EC2DF0E0F5
:10161000EB19F109319621E030E002C0220F331FAF
:10162000BA94E2F7215031090E2E01C0220F0A941C
:10163000EAF78D2D01C0880FEA95EAF7422F409511
:10164000998149232823422B49836E2D8F2D0E9497
:10165000D50901C080E00F90DF91CF911F910F91CC
:10166000FF90EF90DF90CF90BF900895CF92DF92E0
:10167000EF92FF920F931F93CF93DF931F92CDB7FB
:10168000DEB7F82EE62ED42EC22E08EE13E09E0111
:101690002F5F3F4F41E00E94E5099981CC2041F046
:1016A00041E050E001C0440FDA94EAF7492B09C049
:1016B00021E030E0A90101C0440FDA94EAF7409537
:1016C000492349836E2D8F2D0E94D5090F90DF91FC
:1016D000CF911F910F91FF90EF90DF90CF900895E1
:1016E0001F920F920FB60F9211242F933F934F9397
:1016F0005F936F937F938F939F93AF93BF93EF937A
:10170000FF938091D30187FF05C01092850010924E
:1017100084001BC02091D301022E000C330B80915A
:10172000120390E02817390784F48091D301082E22
:10173000000C990BFC01EE0FFF1F8E0F9F1FFC0189
:10174000E251FD4F808186FD15C08091D3018F5FEE
:101750008093D3012091D301022E000C330B809192
:10176000120390E028173907C4F48091D3018C301C
:1017700064F113C08091D301082E000C990BFC0179
:10178000EE0FFF1F8E0F9F1FFC01E251FD4F808166
:1017900060E08F730E946107D8CF809184009091A0
:1017A0008500049680349C4918F480E49CE905C0C7
:1017B0008091840090918500049690938900809395
:1017C00088008FEF8093D3013BC02091840030913B
:1017D00085008091D301082E000C990BFC01EE0FBF
:1017E000FF1F8E0F9F1FFC01E251FD4F81819281EF
:1017F000820F931F90938900809388008091D3017A
:10180000082E000C990BFC01EE0FFF1F8E0F9F1F7F
:10181000FC01E251FD4F808186FF12C08091D3010F
:10182000082E000C990BFC01EE0FFF1F8E0F9F1F5F
:10183000FC01E251FD4F808161E08F730E946107DE
:10184000FF91EF91BF91AF919F918F917F916F9198
:101850005F914F913F912F910F900FBE0F901F906E
:1018600018951F920F920FB60F9211242F933F934A
:101870004F935F936F937F938F939F93AF93BF9398
:10188000EF93FF938091B900887F803609F49CC064
:1018900068F5883209F45BC090F4803109F454C0D3
:1018A00038F4882309F4F6C0883009F44DC0F6C036
:1018B000883109F44CC0803209F45DC0EFC0803437
:1018C00009F468C048F4803309F455C0883309F03E
:1018D000E5C080932302D8C0803509F44FC0883515
:1018E00009F45DC0883409F0D9C0D6C0883909F43C
:1018F000C7C0A8F4883709F467C038F4883609F4FB
:1019000063C0803709F460C0C9C0883809F4B8C022
:10191000803909F45FC0803809F0C0C05BC0803BEB
:1019200009F486C038F4803A09F466C0883A09F4AC
:101930007FC0B4C0803C09F4A7C0883C09F4A4C0AF
:10194000883B09F48AC0AAC08091000210C090911F
:10195000220280912102981770F5E091220281E025
:101960008E0F80932202F0E0EF5FFD4F8081809325
:10197000BB0085EC86C0809323028EC0E0912202DA
:1019800081E08E0F809322028091BB00F0E0EF5F38
:10199000FD4F808390912202809121026EC0E091E0
:1019A000220281E08E0F809322028091BB00F0E042
:1019B000EF5FFD4F80838091240281116DC081E033
:1019C0008093FF0184EA61C083E080932502109236
:1019D000D201CFCF8091D201803208F051C0E09186
:1019E000D20181E08E0F8093D2018091BB00F0E0A4
:1019F000EE54FE4F8083BDCF85EC8093BC001092E7
:101A000025028091D201803230F4E091D201F0E0E1
:101A1000EE54FE4F10826091D20170E0E091B0016F
:101A2000F091B10182EB91E009951092D20136C09C
:101A300084E0809325021092AF011092AE01E091F4
:101A4000AC01F091AD0109958091AE01811105C005
:101A500081E08093AE0110928C01E091AF0181E0B2
:101A60008E0F8093AF01F0E0E457FE4F80818093AA
:101A7000BB009091AF018091AE01981708F479CF27
:101A800085E88093BC000AC085EC8093BC0010926E
:101A9000250204C0109223020E945C06FF91EF9180
:101AA000BF91AF919F918F917F916F915F914F9176
:101AB0003F912F910F900FBE0F901F90189590E0BF
:101AC000FC01E550F54F2491FC01E452F54F84915F
:101AD000882399F090E0880F991FFC01E253F54F9D
:101AE000A591B491FC01E054F54F859194918FB785
:101AF000F894EC91E22BEC938FBF08950F931F9312
:101B0000CF93DF938C01C0E0D0E0F801EC0FFD1F14
:101B10006491662371F0E0914A02F0914B020190CA
:101B2000F081E02D8AE492E00995892B11F021964D
:101B3000ECCFCE01DF91CF911F910F910895CF93FC
:101B4000DF930E947E0DEC0168E571E08AE492E08B
:101B50000E9459148C0F9D1FDF91CF910895209101
:101B6000490290914802213208F04AC08091250232
:101B70008111FCCF32E03093250231E03093240212
:101B80003FEF309323021092220220932102A8E219
:101B9000B2E041E052E0FA013E2F341B321718F454
:101BA0003D913193F9CF1092000220910002990FDC
:101BB000922B909300029091FF01913061F410926A
:101BC000FF01909100029093BB009091BC0093FDA7
:101BD000F8CF95EC01C095EE9093BC009091250252
:101BE0009230E1F3909123029F3F79F0809123029C
:101BF000803241F080912302803331F084E005C0CF
:101C000081E003C082E001C083E0109227021092BD
:101C100049021092260208950F931F93CF93DF93EA
:101C2000C3E1D3E008EE13E024E133E041E06AE3EE
:101C300088810E94E5098981DF91CF911F910F91E1
:101C40000895CF93DF93EA0191E090932602809369
:101C50004802109227021092490282EE92E00E94FE
:101C6000E206698182EE92E00E94E206688182EEDD
:101C700092E00E94E2060E94AF0D91E0811190E097
:101C8000892FDF91CF91089521E042E06AE68091AB
:101C900013030C94360B482F6EE6809113030C94BB
:101CA000D5092F923F924F925F926F927F928F92BF
:101CB0009F92AF92BF92CF92DF92EF92FF920F93DB
:101CC0001F93CF93DF933C015B01342EC22F202E54
:101CD0004F716DE6809113030E94D5098C2F0E94ED
:101CE0004B0E80E190E00E94B7236C01002331F09D
:101CF00080E190E00E94B723582E492EE12CF12C70
:101D0000EA14FB0408F06DC0C7014096A816B90696
:101D100018F4DA2DDE1901C0D0E18D2F90E020E01B
:101D200031E02C1B31092817390714F4DC2FD19529
:101D3000F301EE0DFF1D222059F0952DA52DB42D98
:101D40008A2F891B8D1730F484918D933196F8CFAB
:101D50005E2E4F2E252D342D4D2F6FE680911303CF
:101D60000E949C098D2E912CC114D10429F1432D80
:101D70004F716DE6809113030E94D5098C2F0E944C
:101D80004B0E08EE13E096014D2F6FE68091130382
:101D90000E94E509A401B601852D942D0E94B3256A
:101DA000892B51F0C6010E944C24222021F1852D5F
:101DB000942D0E944C241FC0E80CF91CCD0FEA148E
:101DC000FB0408F09DCFC11101C03394432D4F7126
:101DD0006DE6809113030E94D5098C2F0E944B0E53
:101DE0008FCFC6010E944C24222039F0852D942DDE
:101DF0000E944C2402C080E001C081E0DF91CF91BD
:101E00001F910F91FF90EF90DF90CF90BF90AF9018
:101E10009F908F907F906F905F904F903F902F900A
:101E200008950F931F93462F08EE13E09C0164E77B
:101E3000809113030E94E5091F910F9108950F935C
:101E40001F93CF93DF93C3E1D3E008EE13E024E1C7
:101E500033E042E062E788810E94E509898190E0F1
:101E6000982F88272A81822BDF91CF911F910F9184
:101E70000895EF92FF920F931F93CF93DF931F92DA
:101E8000CDB7DEB77A0189019E012F5F3F4F41E058
:101E90000E94E509882339F029812E7730E03595B5
:101EA0002795F70120830F90DF91CF911F910F911C
:101EB000FF90EF9008958F929F92AF92BF92CF9232
:101EC000DF92EF92FF926B017C010E9483084B012D
:101ED0005C01C60ED71EE81EF91E0E948308681515
:101EE00079058A059B0528F0C616D706E806F90687
:101EF000A0F7FF90EF90DF90CF90BF90AF909F90B2
:101F00008F9008954F925F926F927F928F929F92DF
:101F1000AF92BF92CF92DF92EF92FF926B017C0162
:101F2000B42E9B01AC010E948B23882319F064E737
:101F300071E027C026013701E89477F82FEF3FEFD3
:101F40004FE75FE7C301B2010E948B2381110DC0EF
:101F50002FEF3FEF4FE75FE7C301B2010E94C81FB9
:101F600018161CF468E771E00CC02FEF3FEF4FE745
:101F70005FE4C701B6010E943423181694F46CE79D
:101F800071E08AE492E0FF90EF90DF90CF90BF90F5
:101F9000AF909F908F907F906F905F904F900C9438
:101FA00059142FEF3FEF4FE75FECC701B6010E94D6
:101FB000C81F87FDE4CF20E030E0A901C701B601CA
:101FC0000E94C81F87FF11C0E0914A02F0914B02A6
:101FD0000190F081E02D6DE28AE492E009954C01D8
:101FE000F7FAF094F7F8F09402C0812C912CA12C10
:101FF00060E070E080E09FE3AB1441F020E030E06F
:1020000040E251E40E946522A394F6CF9B01AC010B
:10201000C701B6010E9487212B013C010E94DE22EC
:102020006B017C010E94CD1F9B01AC01C301B20179
:102030000E9486212B013C012AE0B701A6018AE417
:1020400092E00E946E147C01E80CF91CBB2069F040
:10205000E0914A02F0914B020190F081E02D6EE296
:102060008AE492E00995E80EF91EDB2CDD2031F1BF
:1020700020E030E040E251E4C301B2010E942E2092
:102080002B013C010E94DE224B01A12CB12C2AE045
:10209000B501A4018AE492E00E946E14E80EF91ED4
:1020A000C501B4010E94CD1F9B01AC01C301B20167
:1020B0000E9486212B013C01DA94D8CFC701FF9002
:1020C000EF90DF90CF90BF90AF909F908F907F90D8
:1020D0006F905F904F900895FC018091FE018111F7
:1020E00003C08FEF9FEF08959FB7F89482E080932D
:1020F000E9002091F20030E01216130614F421E0FA
:1021000030E02115310559F0289884E68093FD01CF
:102110008091F10080838091F200882319F09FBFA5
:10212000C90108958BE68093E800F9CF2FB7F894A2
:1021300083E08093E9009091E800892F807295FFF9
:1021400004C09091F20080E4891B2FBF0895809114
:10215000AE0381110DC082E08093AA0384E08093D6
:10216000AB031092AD031092AC0381E08093AE03F9
:102170008AEA93E008954091BC035091BD032091F9
:10218000BA033091BB0342175307B4F49091E800AF
:102190009570E1F39091E80092FD19C08093F100F1
:1021A0008091BC039091BD0301968F739927892B71
:1021B00019F48EEF8093E8008091BC039091BD03E9
:1021C00001969093BD038093BC0381E0089580E065
:1021D0000895CF92DF92EF92FF920F931F93CF93C8
:1021E000DF931F92CDB7DEB7182F062FE42E862F70
:1021F000880F8E5F99830E94BB1083E00E94BB1002
:10220000F12EC12E9981D92E8C2D8F19801798F41B
:10221000F601E7FE02C0849101C080810E94BB10DC
:10222000182F80E00E94BB108123FFEFCF1ADF0A36
:102230008111EACF01C081E00F90DF91CF911F9112
:102240000F91FF90EF90DF90CF900895DF92EF9283
:10225000FF920F931F93CF93DF93D82E8A017B01B8
:10226000E40EF51EEB01CE15DF0571F0D7FE03C0BD
:10227000FE01849101C088810E94BB1021968111CA
:10228000F2CF8FEF9FEF01C0C801DF91CF911F9177
:102290000F91FF90EF90DF900895615030F0209102
:1022A000F100FC0120830196F8CF289884E6809302
:1022B000FD010895CF92DF92EF92FF920F931F934B
:1022C000CF93DF936C017A018B01C0E0D0E0CE1593
:1022D000DF0589F0D8016D918D01D601ED91FC915A
:1022E0000190F081E02DC6010995892B11F47E0142
:1022F00002C02196ECCFC701DF91CF911F910F91C2
:10230000FF90EF90DF90CF9008950F931F93CF939E
:10231000DF931F92CDB7DEB782E0898342E450E0BD
:102320006AE17BE080E80E9426110E94A710DC0190
:1023300012960D911C9113970115110569F0D801A2
:10234000ED91FC910280F381E02DBE016F5F7F4F24
:10235000C801099597FF07C089810F90DF91CF9140
:102360001F910F910895F80100851185E5CF1F9207
:102370000F920FB60F9211248F939F938091E100DB
:102380009091E100937F9093E10083FF0FC0109242
:10239000E90091E09093EB001092EC0092E39093AF
:1023A000ED001092FE0198E09093F00082FF20C0B3
:1023B00093E09093E9009091F200992319F09AE349
:1023C0009093E8009091B903992339F09091B90363
:1023D00091509093B903992389F19091FD0199232C
:1023E00039F09091FD0191509093FD01992341F1B5
:1023F00084FF10C08091E2008E7E81608093E200B5
:102400008091E1008F7E8093E1008091B8038E7E01
:10241000806111C080FF16C08091E2008E7E8061D5
:102420008093E2008091E1008E7E8093E1008091B4
:10243000B8038E7E81608093B80304C05D9ACDCFCF
:10244000289AD6CF9F918F910F900FBE0F901F901B
:1024500018951F920F920FB60F921124CF92DF9210
:10246000EF92FF920F931F932F933F934F935F939E
:102470006F937F938F939F93AF93BF93EF93FF934C
:10248000CF93DF93CDB7DEB76C97DEBFCDBF109291
:10249000E9008091E80083FFEDC168E0CE01459638
:1024A0000E944D1182EF8093E8008D8987FF05C05F
:1024B0009091E80090FFFCCF03C09EEF9093E8005E
:1024C000982F907609F0C6C09E892F89188D91119A
:1024D0000CC0803829F48091B7038093F10002C0CA
:1024E0001092F1001092F10048C1422F50E0512BA0
:1024F000913051F4811141C14130510509F03DC184
:102500008091B7038D7F0BC0933061F4811135C189
:102510004130510509F031C18091B7038260809349
:10252000B7032BC1953041F48091E80080FFFCCFC8
:1025300020682093E30021C1963009F05FC0EB8C46
:10254000FC8C1092E9001092BD031092BC03123073
:1025500091F51092BB031092BA030E94851199E085
:10256000BE016F5F7F4FDB01E92F1D92EA95E9F70E
:1025700099831A8391E09E8390EA98879AEF9987CE
:102580002091BC033091BD03275F3F4F3C832B83D9
:102590008D831092E9001092BD031092BC03F0925B
:1025A000BB03E092BA0349E050E080E00E942611AC
:1025B0000E948511E2C0F092BB03E092BA030E9430
:1025C000A710DC011296ED90FC901397E114F10432
:1025D00009F4C0C0D701ED91FC910480F581E02D94
:1025E000BE016B5E7F4FC7010995009719F00CF093
:1025F000C4C0C7C0F701E084F184E8CF973009F484
:10260000C0C0983021F481E08093F100B6C09930C9
:1026100009F0B3C0837009F0B4C0E3E4F1E081E0F5
:1026200021E036E39081992361F08093E9002093C3
:10263000EB0091919093EC003093ED008F5F873029
:1026400089F78EE78093EA001092EA008F898093E1
:10265000FE0193C08B8D9C8D1092E9001092BD03FA
:102660001092BC039093BB038093BA03898D8111B0
:1026700056C08E899D89913A59F4813209F081C002
:1026800047E050E06EE071E080E00E94261175C0E6
:10269000913209F076C0833289F4888D90E0982FCA
:1026A00088272F89822BA0E0B0E080930A019093C5
:1026B0000B01A0930C01B0930D015FC0803269F44F
:1026C0008091E80082FFFCCF67E08EE091E00E94FD
:1026D0004D118BEF8093E80006C0823209F04DC0A7
:1026E0008F89809315018091B603882319F0EEEF4E
:1026F000FAE002C0E0E0F8E080910E0190910F0155
:10270000A0911001B0911101803B9440A105B10549
:1027100009F07BC08091150180FF93C076C00E94B4
:10272000A710DC0112960D911C911397011511054C
:1027300041F1D801ED91FC910190F081E02DBE01B5
:102740006B5E7F4FC8010995811117C0F8010085A4
:102750001185ECCF113009F44EC0133091F48F89FC
:10276000882309F445C0823081F440E860E18EE7B7
:102770009BE00E94E910882321F08EEF8093E8000F
:1027800079C081E28093EB0075C0813029F440E884
:102790006BE082E79BE0EDCF833099F70E94A710B2
:1027A000DC011296ED90FC9013978E010F5F1F4F86
:1027B0006801E114F10479F0D701ED91FC910680F4
:1027C000F781E02DB801C7010995080F111DF70128
:1027D000E084F184EECFD8011C92F6010190002034
:1027E000E9F73197BF016C197D0940E0C601C1CFFF
:1027F0006CE57BE002C060E67BE06115710509F2E3
:10280000FB01449150E080E840CF0FB6F894A895C2
:1028100080916000886180936000109260000FBE1C
:10282000A895EE3F2AE0F20739F08091FE0A9091D8
:10283000FF0A91838083A1CF1092FF0A1092FE0AB3
:102840009CCFEE3F8AE0F80731F080819181909330
:10285000FF0A8093FE0A87E797E7918380839BE0D6
:1028600088E10FB6F894A895809360000FBE90930E
:10287000600083CF6C960FB6F894DEBF0FBECDBF5D
:10288000DF91CF91FF91EF91BF91AF919F918F9188
:102890007F916F915F914F913F912F911F910F9178
:1028A000FF90EF90DF90CF900F900FBE0F901F9092
:1028B00018956115710579F0FB0101900020E9F789
:1028C0003197AF01461B570BDC01ED91FC91028063
:1028D000F381E02D099480E090E008954F925F929B
:1028E0006F927F92EF92FF920F931F93CF93DF939C
:1028F000CDB7DEB7A1970FB6F894DEBF0FBECDBF40
:102900007C01FA01CB0119A2223008F42AE08E01E1
:102910000F5D1F4F422E512C612C712CBF01A30162
:1029200092010E94EC20F901CA01015011096A309C
:1029300014F4605D01C0695CD8016C93232B242BD7
:10294000252B61F7B801C7010E945914A1960FB653
:10295000F894DEBF0FBECDBFDF91CF911F910F91D5
:10296000FF90EF907F906F905F904F9008950C9440
:102970005914CF93DF93CDB7DEB7CE5AD1090FB636
:10298000F894DEBF0FBECDBF789484B5826084BD5D
:1029900084B5816084BD85B5826085BD85B5816063
:1029A00085BD80916E00816080936E0010928100E1
:1029B000809181008260809381008091810081609C
:1029C000809381008091800081608093800080915D
:1029D000910082608093910080919100816080934A
:1029E0009100809190008160809390008091C1005F
:1029F00084608093C1008091C10082608093C10097
:102A00008091C10081608093C1008091C30081608A
:102A10008093C3008091C00082608093C000809149
:102A2000C20081608093C20080917A0084608093AC
:102A30007A0080917A00826080937A0080917A0097
:102A4000816080937A0080917A00806880937A0018
:102A50001092FE011092B7031092B8038091D70034
:102A600081608093D70080EA8093D80089B5806127
:102A700089BD89B5826089BD09B400FEFDCF61E0E2
:102A800070E080E090E00E94C4078091D8008F7CC5
:102A900080618093D8008091E000807F8093E00087
:102AA0008091E1008E7E8093E1008DE08093E200D2
:102AB000559A209AEEEFFFE7859194918B3F9C4DBC
:102AC00019F481E08093B6031092DE021092DF02C7
:102AD0001092E0021092E10210929C0210929D026C
:102AE00010929E0210929F0268EB7BE080E090E0E3
:102AF0000E945B0F8AE492E09093DD028093DC02F7
:102B00000BE110E0F09015016AE070E080E090E0E9
:102B10000E94C407F1100AC00150110939F064E69F
:102B200070E080E090E00E94C407ECCFE091DC020E
:102B3000F091DD028FEF9FEF958784870E948308D5
:102B400060939C0270939D0280939E0290939F02DB
:102B500069E471E08091DC029091DD020E94B7147B
:102B60006AE070E080E090E00E945B0F81E080937B
:102B7000B0021092810110928001109227021092EF
:102B8000490210922502809324021092FF0161E015
:102B900082E00E94610761E083E00E94610780910A
:102BA000B9008E7F8093B9008091B9008D7F8093AA
:102BB000B90088E48093B80085E48093BC0088E184
:102BC0008093B8008091A4038C3008F050C089E055
:102BD0000E945F0DE091A403AE2FB0E0CD01880FFD
:102BE000991FA80FB91FA251BD4F8C91807C89609D
:102BF0008C931092A5031092A6038E2F6CE00E9476
:102C0000A5233CE0839FB001112440E050E09A01ED
:102C1000260F371FD901AA0FBB1F2A0F3B1FD9014F
:102C2000A251BD4F9C9196FD16C04F5F5F4F4C3037
:102C3000510569F781110FC01092800082E08093E6
:102C400081001092850010928400B19A80916F00EB
:102C5000826080936F008E2F90E0FC01EE0FFF1FCB
:102C6000E80FF91FE251FD4F8081806480838FEF70
:102C70009FEF9093570280935602109115016AE0DE
:102C800070E080E090E00E94C4071123B1F386E772
:102C90009AE00E949F0D01E023E042E06BE6809104
:102CA00013030E94EB0A00E022E044E06BE1809114
:102CB00013030E94EB0A22E044E06CE180911303CD
:102CC0000E94EB0A20E046E06BE6809113030E942D
:102CD000360B88E59AE00E949F0D28EE33E044E130
:102CE00053E065E7809113030E94390F809114032C
:102CF000843319F08CE09AE002C086E29AE00E94E8
:102D00009F0D84E49AE00E949F0D21E047E06BE66E
:102D1000809113030E94360B6EE170E080E090E03A
:102D20000E94C40720E046E06BE6809113030E94F6
:102D3000360B40E76DE6809113030E94D50986E0CB
:102D40000E944B0E08EE13E024E133E041E06FE611
:102D5000809113030E94E50940E06DE68091130322
:102D60000E94D5099E012F5F3F4F41E060E08091B6
:102D700013030E94E509898181708093140328EE72
:102D800033E044E153E060E0809113030E94390F87
:102D90008090140328EE33E044E153E061E0809139
:102DA00013030E94390F9090140328EE33E044E19E
:102DB00053E062E0809113030E94390FA090140346
:102DC0004FE765E2809113030E94D50920E045E0BA
:102DD0006AE6809113030E94360B48E665E2809113
:102DE00013030E94D50921E041E06AE680911303B4
:102DF0000E94360B64E170E080E090E00E94C4071E
:102E000001E020E040E069E877E087EE91E00E9491
:102E1000510E882309F4D1C288E090E00E94B723C4
:102E2000B82E192FE12CF12CF701E95DFE4F4491EA
:102E3000F701E85DFE4F2491670153E0C50ED11CF8
:102E4000F701E75DFE4FE491EE23D1F1EE2EF12C78
:102E5000E330D8F0B7018B2D912FC255DF4F288377
:102E6000CE5AD040C355DF4F4883CD5AD0400E9440
:102E7000E424B82E192FC355DF4F4881CD5AD040D6
:102E8000C255DF4F2881CE5AD040AB2DB12F80E004
:102E900090E08E159F0548F4F601E80FF91FE95DF3
:102EA000FE4FE491ED930196F4CF00E0B7018B2D36
:102EB000912F0E94510EEC0CFD1C811117C010C007
:102EC00084E0E80EF11CF601E95DFE4FE491E1308B
:102ED00039F442E368E3809113030E94D50906C0E8
:102EE0008B2D912F0E944C2482E068C290ECE91651
:102EF000F10408F499CF8B2D912F0E944C2403E00C
:102F000023E042E06BE6809113030E94EB0A42E16A
:102F100068E3809113030E94D50944E069E1809140
:102F200013030E94D50901E023E045E06AE18091A6
:102F300013030E94EB0A03E023E042E06AE1809180
:102F400013030E94EB0A22E044E06BE1809113033B
:102F50000E94EB0A43E060E7809113030E94D509C9
:102F600040E061E7809113030E94D50920E040E032
:102F700060E0809113030E94360B082D26E046E0A6
:102F800060E0809113030E94EB0A092D26E046E0E1
:102F900061E0809113030E94EB0A0A2D26E046E0CF
:102FA00062E0809113030E94EB0AE12CF12CF701FF
:102FB000E850FF4FE491A1E8B0E0AC0FBD1FAE0DAB
:102FC000B11DEC9381E08E0DAFEFEA1AFA0AB3E07F
:102FD000BE1568F7CD57DF4F6881C358D04070E009
:102FE0009B012E5F3F4F90E02817390704F700E060
:102FF000CE57DF4F2881C258D040CF57DF4F48818E
:10300000C158D04081E890E08C0F9D1F03960E942C
:10301000510E80E0F701E850FF4FE491A1E8B0E0E5
:10302000AC0FBD1FA80FB11DEC938F5F2FEFE21AFD
:10303000F20A843078F3CD57DF4F6881C358D0400F
:1030400070E0AB014E5F5F4F282F30E0421753070F
:103050000CF700E0CE57DF4F2881C258D040CF5741
:10306000DF4F4881C158D04081E890E08C0F9D1F10
:1030700003960E94510E0E94440E0E941F0F682F5B
:10308000CE0101960E94110F42E06FE1809113037F
:103090000E94D5094CE961E2809113030E94D50991
:1030A00040E560E2809113030E94D50940E062E2AE
:1030B000809113030E94D5090E94440E21E046E04E
:1030C0006AE6809113030E94360B21E047E06AE62E
:1030D000809113030E94360B21E043E06AE6809161
:1030E00013030E94360B80E0F701E850FF4FE49194
:1030F000A1E8B0E0AC0FBD1FA80FB11DEC938F5F2E
:103100003FEFE31AF30A843078F3CD57DF4F68813D
:10311000C358D04070E0AB014E5F5F4F282F30E0C6
:10312000421753070CF700E0CE57DF4F2881C258F3
:10313000D040CF57DF4F4881C158D04081E890E060
:103140008C0F9D1F03960E94510E80E0F701E850FE
:10315000FF4FE491A1E8B0E0AC0FBD1FA80FB11D77
:10316000EC938F5F4FEFE41AF40A843078F3CD5775
:10317000DF4F6881C358D04070E0AB014E5F5F4FB6
:10318000282F30E0421753070CF700E0CE57DF4FEF
:103190002881C258D040CF57DF4F4881C158D04016
:1031A00081E890E08C0F9D1F03960E94510E80E0F5
:1031B000F701E850FF4FE491A1E8B0E0AC0FBD1F6C
:1031C000A80FB11DEC938F5F5FEFE51AF50A84300D
:1031D00078F3CD57DF4F6881C358D04070E0AB0122
:1031E0004E5F5F4F282F30E0421753070CF700E087
:1031F000CE57DF4F2881C258D040CF57DF4F48818C
:10320000C158D04081E890E08C0F9D1F03960E942A
:10321000510E0E941F0F83309105D8F3682FCE0105
:1032200001960E94110F0E940C0E80E0F701E850F9
:10323000FF4FE491A1E8B0E0AC0FBD1FA80FB11D96
:10324000EC938F5F9FEFE91AF90A843078F3CD573A
:10325000DF4F3880C358D040832C912CA4014E5F9F
:103260005F4F282F30E04217530704F7CE57DF4F48
:10327000B880C258D040CF57DF4F2880C158D040C7
:10328000422D4F716DE6809113030E94D5098B2D5D
:103290000E944B0EC12CD12C612C7724739461E8D1
:1032A000462E512C4C0E5D1EA3E04A0E511CC81434
:1032B000D90498F5C60140968816990618F4A32CEF
:1032C000AC1802C040E1A42E8A2D90E093012B1986
:1032D00031092817390714F4AB2CA19492012C0D55
:1032E0003D1D08EE13E04A2D6FE6809113030E9406
:1032F000E509CA0CD11CBA0CC814D904C0F6B11027
:1033000001C02394422D4F716DE6809113030E94FA
:10331000D5098B2D0E944B0ECACF0E941F0F833000
:103320009105D8F3682FCE0101960E94110F0E94DB
:103330000C0EF701E850FF4F80E09491A1E8B0E057
:10334000AC0FBD1FA80FB11D9C938F5F843010F48C
:103350003196F3CFCD57DF4F6881C358D04070E02E
:10336000AB014E5F5F4F282F30E04217530784F7C1
:1033700000E0CE57DF4F2881C258D040CF57DF4FF3
:103380004881C158D04081E890E08C0F9D1F039682
:103390000E94510E20E047E06AE6809113030E94EC
:1033A000360B8AE290E090931603809315030E94F7
:1033B000440E0E940C0E80E001C081E08093370330
:1033C000809113032CED30E0CD56DF4F39832883F5
:1033D000C359D040AE014D565F4F63E10E94210EAC
:1033E000809113032CE430E0CF56DF4F39832883DC
:1033F000C159D040AE014F565F4F65E10E94210E8A
:10340000809113032BEA3FEFCF57DF4F3983288397
:10341000C158D040AE014F575F4F67E10E94210E67
:10342000809113032CEF36E03A832983AE014F5F7E
:103430005F4F6AE00E94210E80913703811131C0F5
:103440008CEF99E00E949F0D21E047E06AE68091B1
:1034500013030E94360B8DEB99E00E949F0D85E1CE
:1034600097E090930101809300018091690083604F
:1034700080936900E89A0E940C0E8093360383E9DA
:1034800099E00E949F0D81E0809335032091150300
:1034900030911603309339032093380380938301CE
:1034A00014C082E799E00E947E0D4091370350E0FE
:1034B00060E070E02AE08AE492E00E946E1480E707
:1034C00099E00E949F0D109283018DE00E945F0D94
:1034D00038E8232E312C08E512E00E948308672B80
:1034E000682B692B41F40E948308623071058105C5
:1034F000910508F40FC10E948308609388017093BE
:10350000890180938A0190938B01C0908401D090AF
:103510008501E0908601F09087016C157D058E0590
:103520009F0540F460938401709385018093860128
:1035300090938701C0908401D0908501E09086012E
:10354000F09087019B01AC012C193D094E095F09E0
:1035500069017A013AEFC316D104E104F10408F4D9
:10356000D9C0609384017093850180938601909304
:10357000870184EF91E0A0E0B0E08093A8029093EF
:10358000A902A093AA02B093AB021092AC021092CF
:10359000AD021092AE021092AF028091A002909103
:1035A000A102A091A202B091A3028093A4029093E1
:1035B000A502A093A602B093A7020E94830860937D
:1035C000A0027093A1028093A2029093A3020E9492
:1035D000830860939C0270939D0280939E02909357
:1035E0009F020E9483086B017C016BE571E0809172
:1035F000DC029091DD020E94B7142AE041E050E025
:1036000060E070E08091DC029091DD020E946E1417
:1036100062E671E08091DC029091DD020E94B714B5
:103620002AE0B701A6018091DC029091DD020E94A0
:103630006E1464E671E08091DC029091DD020E94DC
:10364000B7148091A0029091A102A091A202B09122
:10365000A302B701A601481B590B6A0B7B0B2AE09A
:103660008091DC029091DD020E946E1464E671E0AC
:103670008091DC029091DD020E94B7144091A0027B
:103680005091A1026091A2027091A3028091A402C4
:103690009091A502A091A602B091A702481B590BD8
:1036A0006A0B7B0B2AE08091DC029091DD020E9484
:1036B0006E1466E671E08091DC029091DD020E945A
:1036C000B7140E948308AB01BC012AE08091DC02A0
:1036D0009091DD020E946E14E090DC02F090DD0219
:1036E00068E671E0C7010E94591468E571E0C701FE
:1036F0000E94591465E070E080E090E00E945B0F4A
:103700000E9483086093A0027093A1028093A2029A
:103710009093A30280913503882349F120913A03C5
:1037200030913B038091380390913903409182019D
:10373000411103C028173907C8F3109282010E9473
:103740000C0E809336030E941F0F9C0190933B0345
:1037500080933A039091360394FD03C021153440C1
:1037600071F40E94440E82E99AE00E949F0D40E0AD
:1037700050E0452B09F4B1CE0E940000AECE91FF7F
:10378000F6CF609138037091390380913A0390919C
:103790003B038617970738F40E941F0F90933B0353
:1037A00080933A03EECF8CE393E00E94110F809157
:1037B0003A0390913B032091380330913903821BE7
:1037C000930B90933B0380933A038CE393E0892B14
:1037D00029F4E0911303F091140302C0ECE3F3E049
:1037E000A480B12CBA2CAA248581A80EB11CE08437
:1037F000F12CFE2CEE248185E80EF11CC484D12C22
:10380000DC2CCC248585C80ED11C608170E0762F1D
:1038100066278181680F711D072E000C880B990B9C
:103820000E94CF1F20E030E040E858E30E942E20A5
:103830002B013C0160937C0370937D0380937E0396
:1038400090937F03B501BB0C880B990B0E94CF1F8F
:1038500020E030E040E858E30E942E204B015C015C
:10386000609380037093810380938203909383031A
:10387000B701FF0C880B990B0E94CF1F20E030E0AE
:1038800040E858E30E942E20CB56DF4F68837983AF
:103890008A839B83C559D0406093840370938503CA
:1038A0008093860390938703B601DD0C880B990BF8
:1038B0000E94CF1F20E030E040E858E30E942E2015
:1038C000C756DF4F688379838A839B83C959D04069
:1038D000609388037093890380938A0390938B038A
:1038E0009B01AC01C501B4010E942E206B017C013B
:1038F000CB56DF4F288139814A815B81C559D04041
:10390000C301B2010E942E209B01AC01C701B60188
:103910000E9486219B01AC010E948721C356DF4F84
:10392000688379838A839B83CD59D04060938C03CD
:1039300070938D0380938E0390938F03A501940160
:10394000C301B2010E942E206B017C01C756DF4FDC
:10395000288139814A815B81C959D040CB56DF4FDC
:10396000688179818A819B81C559D0400E942E202F
:103970009B01AC01C701B6010E9487219B01AC01EC
:103980000E948721CF55DF4F688379838A839B8389
:10399000C15AD04060939003709391038093920337
:1039A00090939303A3019201C301B2010E942E20C0
:1039B0006B017C01A5019401C501B4010E942E2078
:1039C0009B01AC01C701B6010E9486216B017C01FD
:1039D000CB56DF4F288139814A815B81C559D04060
:1039E000CA01B9010E942E209B01AC01C701B6019A
:1039F0000E9486216B017C01C756DF4F28813981E7
:103A00004A815B81C959D040CA01B9010E942E2068
:103A10009B01AC01C701B6010E9487216B017C01AB
:103A20006093940370939503809396039093970308
:103A3000A3019201C301B2010E948721CB55DF4F40
:103A4000688379838A839B83C55AD040A5019401FA
:103A5000C501B4010E948721C755DF4F6883798370
:103A60008A839B83C95AD040A3019201CB55DF4F73
:103A7000688179818A819B81C55AD0400E942E201D
:103A80002B013C01A5019401C755DF4F6881798165
:103A90008A819B81C95AD0400E942E209B01AC0193
:103AA000C301B2010E94872120E030E040E85FE3DB
:103AB0000E9486212B013C01CB56DF4F28813981A2
:103AC0004A815B81C559D040C755DF4F68817981F4
:103AD0008A819B81C95AD0400E942E204B015C01F3
:103AE000C756DF4F288139814A815B81C959D0404F
:103AF000CB55DF4F688179818A819B81C55AD0403F
:103B00000E942E209B01AC01C501B4010E948621B8
:103B1000A30192010E940622609398037093990377
:103B200080939A0390939B03A7019601C701B60166
:103B30000E942E206B017C01CF55DF4F28813981F7
:103B40004A815B81C15AD040CA01B9010E942E202E
:103B5000A70196010E9487210E9447239B01AC0187
:103B6000C356DF4F688179818A819B81CD59D040CE
:103B70000E9465220E94362260939C0370939D03ED
:103B800080939E0390939F03C356DF4F2881398112
:103B90004A815B81CD59D040CA01B9010E942E20D3
:103BA000A70196010E9487210E9447239B01AC0137
:103BB000CF55DF4F688179818A819B81C15AD0407E
:103BC0000E9465220E9436226093A0037093A10395
:103BD0008093A2039093A3036FE671E08AE492E0DE
:103BE0000E94B71420E030E044E353E4609198036E
:103BF0007091990380919A0390919B030E942E20CB
:103C00002BED3FE049E450E40E94652242E00E942F
:103C1000820F62E771E08AE492E00E94B71420E02C
:103C200030E044E353E460919C0370919D038091E4
:103C30009E0390919F030E942E202BED3FE049E4CC
:103C400050E40E94652242E00E94820F62E771E028
:103C50008AE492E00E94B71420E030E044E353E4A9
:103C60006091A0037091A1038091A2039091A3039E
:103C70000E942E202BED3FE049E450E40E94652293
:103C800042E00E94820F68E571E08AE492E00E94BF
:103C9000591420E030E044E353E4609198037091BC
:103CA000990380919A0390919B030E942E202BED03
:103CB0003FE049E450E40E9465220E94D7229B0124
:103CC000AC012C543F4F4F4F5F4FA4EBB0E00E942C
:103CD0002D2128E631E040E050E00E940E21B9019C
:103CE0002032B2E03B070CF03DC037FD06C0253B5B
:103CF00031052CF064EB70E002C060E070E0809170
:103D0000A5036101C81AD10887FDD394D601AA0F73
:103D1000BB1FAA0FBB1F6D01BB0FEE08FF088091F0
:103D2000A6039801281B310987FD3395220F331F05
:103D3000220F331FC901330FAA0BBB0B9C01AD012E
:103D40002C193D094E095F09DB010E94382124EB43
:103D500030E040E050E00E940E21C20ED31EE41E6F
:103D6000F51EB6014091A4034C3008F000CD8091BF
:103D7000A5039101281B310987FD3395C901880FDF
:103D8000991F880F991F6817790784F08091A603FF
:103D90009801281B310987FD3395220F331F220F0D
:103DA000331FCB01261737070CF4C9010297880F80
:103DB000991F2FB7F89450E0FA01EE0FFF1F4E0F36
:103DC0005F1FFA01E251FD4F928381832FBFCFCC59
:103DD00010924D0210924C0288EE93E0A0E0B0E009
:103DE00080934E0290934F02A0935002B0935102E1
:103DF00022E231E030934B0220934A022FEF3FEF53
:103E000030935702209356021092A0021092A10202
:103E10001092A2021092A3021092A4021092A50284
:103E20001092A6021092A7021092A8021092A90264
:103E30001092AA021092AB021092AC021092AD0244
:103E40001092AE021092AF021092E5021092E402BC
:103E50008093E6029093E702A093E802B093E90210
:103E600084E391E09093E3028093E20288E68093FA
:103E7000130380E090E0A0E8BFE380937C0390937D
:103E80007D03A0937E03B0937F0310928003109272
:103E90008103109282031092830310928403109284
:103EA0008503109286031092870310928803109264
:103EB000890310928A0310928B0310928C03109244
:103EC0008D0310928E0310928F0310929003109224
:103ED0009103109292031092930310929403109204
:103EE00095031092960310929703809112038C30E1
:103EF000A0F491E0980F909312038093A40390E0B4
:103F0000FC01EE0FFF1F8E0F9F1FFC01E251FD4FC2
:103F100088EB9BE09283818303C08FEF8093A4039F
:103F2000809112038C30A0F491E0980F90931203CB
:103F30008093A70390E0FC01EE0FFF1F8E0F9F1FE1
:103F4000FC01E251FD4F88EB9BE09283818303C02B
:103F50008FEF8093A70310922703109226031092ED
:103F60002B0310922A031092290310922803109217
:103F70002D0310922C0310923103109230031092F3
:103F80002F0310922E0310923203109235030895DE
:103F90000E940A2008F481E00895E89409C097FB84
:103FA0003EF490958095709561957F4F8F4F9F4F10
:103FB0009923A9F0F92F96E9BB279395F695879554
:103FC00077956795B795F111F8CFFAF4BB0F11F417
:103FD00060FF1BC06F5F7F4F8F4F9F4F16C08823BE
:103FE00011F096E911C0772321F09EE8872F762FF4
:103FF00005C0662371F096E8862F70E060E02AF035
:104000009A95660F771F881FDAF7880F9695879520
:1040100097F90895990F0008550FAA0BE0E8FEEFF5
:1040200016161706E807F907C0F012161306E4077C
:10403000F50798F0621B730B840B950B39F40A2675
:1040400061F0232B242B252B21F408950A2609F453
:10405000A140A6958FEF811D811D08950E944120EA
:104060000C94B2200E94A42038F00E94AB2020F0D3
:10407000952311F00C949B200C94A12011240C94F6
:10408000E6200E94C32070F3959FC1F3950F50E086
:10409000551F629FF001729FBB27F00DB11D639FFA
:1040A000AA27F00DB11DAA1F649F6627B00DA11DA0
:1040B000661F829F2227B00DA11D621F739FB00D46
:1040C000A11D621F839FA00D611D221F749F3327B6
:1040D000A00D611D231F849F600D211D822F762F4F
:1040E0006A2F11249F5750409AF0F1F088234AF02C
:1040F000EE0FFF1FBB1F661F771F881F9150504098
:10410000A9F79E3F510580F00C949B200C94E6206B
:104110005F3FE4F3983ED4F3869577956795B7951E
:10412000F795E7959F5FC1F7FE2B880F911D969538
:10413000879597F9089597F99F6780E870E060E0A8
:1041400008959FEF80EC089500240A941616170630
:1041500018060906089500240A9412161306140678
:1041600005060895092E0394000C11F4882352F0DB
:10417000BB0F40F4BF2B11F460FF04C06F5F7F4F93
:104180008F4F9F4F089557FD9058440F551F59F07A
:104190005F3F71F04795880F97FB991F61F09F3F34
:1041A00079F087950895121613061406551FF2CF5D
:1041B0004695F1DF08C0161617061806991FF1CFAD
:1041C00086957105610508940895E894BB276627D4
:1041D0007727CB0197F90895A1E21A2EAA1BBB1BE2
:1041E000FD010DC0AA1FBB1FEE1FFF1FA217B307C3
:1041F000E407F50720F0A21BB30BE40BF50B661FD9
:10420000771F881F991F1A9469F76095709580959C
:1042100090959B01AC01BD01CF010895052E97FB40
:104220001EF400940E94252157FD07D00E94EC2027
:1042300007FC03D04EF40C94252150954095309501
:1042400021953F4F4F4F5F4F089590958095709502
:1042500061957F4F8F4F9F4F08950E947721A59FB3
:10426000900DB49F900DA49F800D911D1124089571
:10427000B7FF0C942D210E942D21821B930B0895D2
:104280002F923F924F925F926F927F928F929F9266
:10429000AF92BF92CF92DF92EF92FF920F931F9354
:1042A000CF93DF93CDB7DEB7CA1BDB0B0FB6F89405
:1042B000DEBF0FBECDBF09942A88398848885F8445
:1042C0006E847D848C849B84AA84B984C884DF80B6
:1042D000EE80FD800C811B81AA81B981CE0FD11D9A
:1042E0000FB6F894DEBF0FBECDBFED010895A29FBB
:1042F000B001B39FC001A39F700D811D1124911DBA
:10430000B29F700D811D1124911D08955058BB2737
:10431000AA270E949E210C94B2200E94A42038F06B
:104320000E94AB2020F039F49F3F19F426F40C943E
:10433000A1200EF4E095E7FB0C949B20E92F0E944E
:10434000C32058F3BA17620773078407950720F054
:1043500079F4A6F50C94E5200EF4E0950B2EBA2F17
:10436000A02D0B01B90190010C01CA01A00111247B
:10437000FF27591B99F0593F50F4503E68F11A1627
:10438000F040A22F232F342F4427585FF3CF4695B8
:1043900037952795A795F0405395C9F77EF41F16DA
:1043A000BA0B620B730B840BBAF09150A1F0FF0FA4
:1043B000BB1F661F771F881FC2F70EC0BA0F621F90
:1043C000731F841F48F4879577956795B795F79580
:1043D0009E3F08F0B0CF9395880F08F09927EE0F15
:1043E0009795879508950E94A42060F080E891E059
:1043F00009F49EEF0E94AB2028F040E851E071F4F0
:104400005EEF0CC00C94A1200C94E520E92FE0781D
:104410000E94C32040F3092E052AB1F3261737075F
:104420004807590738F00E2E07F8E02569F0E02517
:10443000E0640AC0EF6307F8009407FADB01B901F2
:104440009D01DC01CA01AD01EF930E947C220E9414
:10445000B2200E9436225F91552339F02BED3FE0C8
:1044600049E450FD49EC0C9487210895DF93DD2742
:10447000B92FBF7740E85FE31616170648075B07BA
:1044800018F4D92F0E9439239F938F937F936F93B2
:104490000E948723EAECF0E00E940D230E94B220E4
:1044A0002F913F914F915F910E944120DD2351F068
:1044B0009058A2EA2AED3FE049EC5FE3D0785D270F
:1044C0000E949E21DF910C94B2200E9479220C94CC
:1044D000B2200E94AB2058F00E94A42040F029F4A2
:1044E0005F3F29F00C949B2051110C94E6200C9412
:1044F000A1200E94C32068F39923B1F3552391F3BF
:10450000951B550BBB27AA2762177307840738F042
:104510009F5F5F4F220F331F441FAA1FA9F335D09F
:104520000E2E3AF0E0E832D091505040E695001C53
:10453000CAF72BD0FE2F29D0660F771F881FBB1F0D
:10454000261737074807AB07B0E809F0BB0B802DEB
:10455000BF01FF2793585F4F3AF09E3F510578F017
:104560000C949B200C94E6205F3FE4F3983ED4F338
:10457000869577956795B795F7959F5FC9F7880FEB
:10458000911D9695879597F90895E1E0660F771F3D
:10459000881FBB1F621773078407BA0720F0621BCE
:1045A000730B840BBA0BEE1F88F7E09508950E94F9
:1045B000DE226894B1110C94E62008950E94CB206D
:1045C00088F09F5798F0B92F9927B751B0F0E1F0D4
:1045D000660F771F881F991F1AF0BA95C9F714C084
:1045E000B13091F00E94E520B1E008950C94E520EF
:1045F000672F782F8827B85F39F0B93FCCF38695BD
:1046000077956795B395D9F73EF490958095709519
:1046100061957F4F8F4F9F4F0895DF93CF931F93E7
:104620000F93FF92EF92DF927B018C01689406C09A
:10463000DA2EEF010E944120FE01E894A591259118
:10464000359145915591A6F3EF010E949E21FE01FF
:104650009701A801DA9469F7DF90EF90FF900F912E
:104660001F91CF91DF9108950E940A2008F48FEFE7
:1046700008959B01AC0160E070E080E89FE30C943A
:10468000652219F416F40C94A1200C9490230E9436
:10469000CB20B8F39923C9F3B6F39F57550B87FF87
:1046A0000E949E230024A0E640EA9001805856957F
:1046B000979528F4805C660F771F881F20F02617D7
:1046C0003707480730F4621B730B840B202931290C
:1046D0004A2BA69517940794202531254A2758F789
:1046E000660F771F881F20F026173707480730F41A
:1046F000620B730B840B200D311D411DA09581F7BA
:10470000B901842F9158880F9695879508959B013C
:10471000AC010C942E200E940A20880B990B08955E
:104720009F3F31F0915020F4879577956795B79525
:10473000880F911D9695879597F90895915050404F
:10474000660F771F881FD2F70895991B79E004C080
:10475000991F961708F0961B881F7A95C9F78095C0
:104760000895EE0FFF1F0590F491E02D0994CF936B
:10477000DF938230910510F482E090E0E091C00375
:10478000F091C10320E030E0C0E0D0E0309711F1BB
:104790004081518148175907C0F04817590761F403
:1047A00082819381209719F09B838A832BC09093F9
:1047B000C1038093C00326C02115310519F04217AB
:1047C000530718F49A01BE01DF01EF010280F38163
:1047D000E02DDCCF2115310509F1281B390B2430E0
:1047E000310590F412968D919C9113976115710586
:1047F00021F0FB019383828304C09093C1038093D3
:10480000C003FD01329644C0FD01E20FF31F819306
:104810009193225031092D933C933AC02091BE03CD
:104820003091BF03232B41F42091180130911901DD
:104830003093BF032093BE032091160130911701DE
:104840002115310541F42DB73EB740911A01509121
:104850001B01241B350BE091BE03F091BF03E2174F
:10486000F307A0F42E1B3F0B2817390778F0AC0193
:104870004E5F5F4F2417350748F04E0F5F1F509370
:10488000BF034093BE038193919302C0E0E0F0E048
:10489000CF01DF91CF9108950F931F93CF93DF93B3
:1048A000009709F48CC0FC013297138212820091A8
:1048B000C0031091C1030115110581F420813181DC
:1048C000820F931F2091BE033091BF032817390731
:1048D00079F5F093BF03E093BE0371C0D80140E0C7
:1048E00050E0AE17BF0750F412962D913C911397EC
:1048F000AD012115310509F1D901F3CF9D01DA018F
:104900003383228360817181860F971F82179307FB
:1049100069F4EC0128813981260F371F2E5F3F4F44
:10492000318320838A819B8193838283452B29F461
:10493000F093C103E093C00342C01396FC93EE933F
:104940001297ED01499159919E01240F351FE217ED
:10495000F30771F480819181840F951F029611965F
:104960009C938E938281938113969C938E9312973E
:10497000E0E0F0E0D80112968D919C91139700979A
:1049800019F0F8018C01F6CF8D919C9198012E5F62
:104990003F4F820F931F2091BE033091BF03281712
:1049A000390769F4309729F41092C1031092C003BB
:1049B00002C0138212821093BF030093BE03DF91E3
:1049C000CF911F910F910895A0E0B0E0EAEEF4E2DC
:1049D0000C944421EC01009721F4CB010E94B723F1
:1049E000B8C0FC01E60FF71F9C0122503109E21705
:1049F000F30708F4ACC0D9010D911C91119706176B
:104A00001707B0F00530110508F49FC0C8010497DE
:104A10008617970708F499C002501109061B170B57
:104A2000019311936D937C93CF010E944C248DC010
:104A30005B01A01AB10A4C01800E911EA091C00327
:104A4000B091C10340E050E0E12CF12C109709F443
:104A50004AC0A815B905D1F56D907C9011976301F6
:104A600082E0C80ED11CCA14DB0480F1A3014A19EC
:104A70005B096A0182E0C80ED11C1296BC901297A5
:104A80001396AC91B5E0CB16D10440F0B282A3836B
:104A900051834083D9016D937C930AC00E5F1F4FF1
:104AA000C301800F911FF90191838083EB2DFA2FB1
:104AB000E114F10431F0D7011396FC93EE931297B1
:104AC00044C0F093C103E093C0033FC08D919C911B
:104AD00011974817590708F4AC017D0112960D9003
:104AE000BC91A02DB3CF8091BE039091BF038815D8
:104AF0009905E1F446175707C8F480911601909183
:104B00001701009741F48DB79EB740911A0150915B
:104B10001B01841B950BE817F907C8F4F093BF033A
:104B2000E093BE03F901718360830FC0CB010E9443
:104B3000B7237C01009759F0A801BE010E94C0254F
:104B4000CE010E944C24C70104C0CE0102C080E007
:104B500090E0CDB7DEB7EEE00C94602181E090E00C
:104B6000F8940C94C925FB01DC0104C08D910190DF
:104B7000801921F441505040C8F7881B990B0895C3
:104B8000FB01DC0102C001900D9241505040D8F76A
:064B90000895F894FFCF28
:104B960053065306530653065306FFFFFFFF00E175
:104BA6000000000000000000C2038000E8030000CF
:104BB6000000F305FE0719070906140641071D073D
:104BC60000000000E206B20612078E0654069E0694
:104BD6008F0600C18081000000564D4450565F315B
:104BE6007C315F564D4450560D0A00564D44504593
:104BF6005F003A323A007C005F564D4450450079DA
:104C0600707209006E616E00696E66006F766600EE
:00000001FF
